:100000002CC050C04FC04EC04DC04CC04BC04AC0A9
:1000100049C048C047C012C745C044C043C03BC2E6
:1000200082C200000000000403020100000001027F
:1000300004081020408004020108010101010101AF
:1000400001010202020200003900360000003B00FC
:10005000380000003A003700DD0111241FBECFE553
:10006000D2E0DEBFCDBF10E0A0E6B0E0E8EFF0E107
:1000700002C005900D92A439B107D9F721E0A4E997
:10008000B0E001C01D92A838B207E1F710E0CDE260
:10009000D0E003C02197FE0111D8CC32D107D1F7AF
:1000A000B4D628C8ADCF0F931F93CF9385E990E0C6
:1000B0008CD6E82F882309F448C040910401209190
:1000C000050150E030E02F5F3F4F4217530729F4FE
:1000D000909104019F5F90930401809105018E30FF
:1000E00029F480910401882309F445C0809104011A
:1000F0008F3011F410920401909105019F5F90934D
:100100000501809105018F3011F410920501809155
:10011000050190E065E070E0C0D78A5F9E4FDC018A
:10012000EC93C0910501D4D68B019C018C2F90E0FB
:1001300065E070E0B2D78A5F9E4FFC0101831283B5
:100140002383348361E087E044D790910501809157
:100150000401981711F060E001C061E087E039D731
:1001600085B7806285BF889585B78F7D85BFCF9124
:100170001F910F910895909104019F5F9093040146
:10018000B5CF0F931F9390910401809105019817AB
:10019000B1F1809104018F5F80930401809104018B
:1001A0008F3011F4109204018091040190E065E019
:1001B00070E073D78A5F9E4FFC01808180936F004F
:1001C00087D68B019C018091040190E065E070E08E
:1001D00064D78A5F9E4FFC0181819281A381B481A3
:1001E000B901A801481B590B6A0B7B0B052F162F71
:1001F000272F3327009370004093710006C01092A0
:100200006F0010927000109271001F910F9108956D
:100210008091720080FF06C0809172008E7F809373
:100220007200AFDF909194008091940048E050E01C
:10023000491B51096091620070916300680F711D44
:1002400087E591E052C281E090E03ED78093730051
:10025000809173008F3F41F48BE480937300609131
:10026000730081E090E038C7089587E591E015D2EA
:1002700089E0E9D6019731F46091730087E591E058
:1002800008D205C06AE470E087E591E004D26EE729
:1002900071E087E591E073D268E071E087E591E075
:1002A00073C262E089E057D661E087E054D616B8A1
:1002B00084E885BF80E885BF85B7877E85BF85B721
:1002C000806285BFC0DFD1CF80917300883088F015
:1002D00080917300883768F481E090E0F5D69091C2
:1002E0007300891751F06091730081E090E0F4D6BB
:1002F000BCCF8BE480937300EFCF0895FF920F93F0
:100300001F93CF93DF938C0187E591E01DD28093FB
:100310009400F12C01501109CF2DD0E0C017D10766
:100320000CF045C087E591E00FD2909194009E01BA
:10033000290F311D28303105C0F59091940020918E
:100340009400AE01420F511DE0916200F0916300F4
:10035000E40FF51FA0916000B0916100AC0FBD1FCC
:10036000A90FB11D2C9130E020953095408150E0CF
:100370002423352320839091940020919400AE0192
:10038000420F511DE0916200F0916300E40FF51FF0
:100390002091600030916100C20FD31FC90FD11DA1
:1003A000988189239081982B9083F394B5CFDF9126
:1003B000CF911F910F91FF9087CFEF920F9383E022
:1003C000E82E04E024E730E047E750E06BE770E018
:1003D00085E990E0ECD10F91EF90089510925301D0
:1003E0001092540110925101109252010895CF932E
:1003F000DF931F92CDB7DEB78983F0DF89818093C9
:10040000560110925E0110925D0110925C011092F3
:100410005B01DC9ADE9AD49AD69888EA8DB980EF8F
:100420008EB90F90DF91CF910895D498D6981DB8CA
:1004300080EF8EB90895909152019F5F9F70209137
:1004400051019217E1F3E92FF0E0E858FE4F808365
:1004500090935201089580915301909154019817FF
:10046000E1F3E0915301EF5FEF70E0935301F0E0AF
:10047000E859FE4F80810895909153018091540175
:10048000891B8F70089590915201809151019F5F57
:10049000891B8F7008951F920F920FB60F9211242F
:1004A0000F931F932F933F934F935F936F937F937C
:1004B0008F939F93AF93BF93CF93EF93FF9300914D
:1004C0005B0110915C010115110561F0C0915401AF
:1004D000809153018C1731F0CFDF90E0F80109953E
:1004E000C093530110925501D698CC9B04C0CE9B6B
:1004F000FCCF88EA01C088EF8DB980EF8EB9FF91FB
:10050000EF91CF91BF91AF919F918F917F916F911B
:100510005F914F913F912F911F910F910F900FBEBF
:100520000F901F9018951F920F920FB60F921124E3
:100530000F931F932F933F934F935F936F937F93EB
:100540008F939F93AF93BF93CF93EF93FF9380913C
:100550005501823009F44CC028F4882359F08130C9
:1005600051F183C0843009F449C010F1853009F499
:1005700064C07BC08FB1882331F08FB18695909194
:100580005601891330C0789B0DC0E0915D01F09158
:100590005E01309729F080915201809351010995B5
:1005A00081E001C084E0809355011FB8D69A5BC0FA
:1005B0008FB1811118C0809151019091520198170B
:1005C00091F0809151018F5F8F7080935101E09184
:1005D0005101F0E0E858FE4F80818FB982E08093AE
:1005E0005501D69A03C0D69888EA8DB980E73CC0F9
:1005F00083E080935501D6981FB835C085E080937D
:100600005501D69880E78EB900915B0110915C018D
:100610000115110551F1C0915401809153018C17BE
:1006200021F18EB18E7AE9F3759B1FC025DF90E032
:10063000F8010995C093530118C084E080935501D7
:100640009FB1809154018F5F8F70209153012817C3
:1006500049F080935401E0915401F0E0E859FE4FD5
:100660009083A3CFD6988EE78EB9FF91EF91CF916B
:10067000BF91AF919F918F917F916F915F914F91BA
:100680003F912F911F910F910F900FBE0F901F90D0
:100690001895862FACCE862FAACEC7CECF93809149
:1006A00058018823C1F080915901803218F080E010
:1006B00090E019C080915A01E0918700F091880084
:1006C000E80FF11D608380915A018F5F80935A017A
:1006D0008093590106C0C62FD6DE882341F38C2FA4
:1006E000AADE81E090E0CF910895CF92DF92EF9261
:1006F000FF920F931F93CF93DF936C01EB017B016C
:10070000E40EF51E00E010E0CE15DF0531F0699132
:10071000C601C4DF080F191FF7CFC801DF91CF91C1
:100720001F910F91FF90EF90DF90CF9008958091EF
:100730005901882331F090E020915A01821B9109E0
:1007400008959ADE90E00895F2DF892BA9F0809158
:100750005901882371F020915A01E0918700F091AE
:100760008800E20FF11D808190E02F5F20935A01F5
:10077000089571DE90E008958FEF9FEF08957093D4
:100780005C0160935B01089570935E0160935D016D
:100790000895FC0110821482138215820895862F19
:1007A00052C4862F642F15C4862F642FD4C34F9252
:1007B0005F926F927F928F929F92AF92BF92CF92F1
:1007C000DF92EF920F93CF93DF93EC015B013A013D
:1007D00049010296DEDF8DE890E0998388836E01FF
:1007E0008CE1C80ED11C2E0188E5480E511CC601B3
:1007F000D0DF86E0C80ED11CC414D504C1F7FE01B9
:10080000EE59FF4F718260823296918280823296D9
:1008100000833196E0823797B182A08238968AE0D1
:1008200090E091838083329684EF91E0918380837E
:100830003396118210827197108211821282138274
:10084000C459DF4F1882DF91CF910F91EF90DF9065
:10085000CF90BF90AF909F908F907F906F905F9060
:100860004F9008952F923F924F925F926F927F9296
:100870008F929F92AF92BF92CF92DF92EF92FF92B0
:100880000F931F93CF93DF93CDB7DEB728970FB6A3
:10089000F894DEBF0FBECDBF98878F8310E04C0168
:1008A00086E6880E911CEF80F88492E6E90EF11C32
:1008B000D4018C911817A0F4AF81B8858D919C91CB
:1008C000F701A081B181A10FB11DFC01208131810F
:1008D00042E06C918F819885F90109951F5FE8CFFF
:1008E000F12CEF81F885E959FF4FFA83E983CF8036
:1008F000D884F4E6CF0ED11C412C512C3201439404
:100900008F8198858E599F4F9C838B83E981FA81D3
:100910008081F81608F088C0AF2CB12CAF81B88563
:100920008D919C91F601A081B181AA0DBB1DFC01A6
:100930002081318141E06C918F819885F901099581
:10094000AF81B8858D919C91F601A081B181AA0DEE
:10095000BB1DFC012281338140E06C918F81988521
:10096000F9010995D301C2010F2C04C0880F991F0A
:10097000AA1FBB1F0A94D2F79C011C01209430943B
:10098000E12CF4018081AF81B885ED91FC91E816EE
:1009900048F50E2D10E0AB81BC818D919C91DC015E
:1009A000A00FB11F0480F581E02D6C918F81988597
:1009B0002D833E830995000F111F2D813E81EF810C
:1009C000F885E00FF11F892B29F480859185822B12
:1009D000932B04C080859185822193219187808704
:1009E000E394CFCFD6018D919C91DC01AA0DBB1D64
:1009F0000280F381E02D41E06C918F81988509950B
:100A0000AF81B885ED91FC91D6018D919C91DC016F
:100A1000AA0DBB1D0190F081E02D40E06C918F810B
:100A200098850995F39472CF28960FB6F894DEBF97
:100A30000FBECDBFDF91CF911F910F91FF90EF902F
:100A4000DF90CF90BF90AF909F908F907F906F90EE
:100A50005F904F903F902F900895FC0180E090E0D0
:100A6000258D368D2617370739F0019636968A3050
:100A70009105B1F78FEF9FEF08950F931F93CF93D9
:100A8000DC01C62F8A01262F30E0C90166E070E044
:100A900004D3FD01E80FF91F10A3078F81E081A3A4
:100AA000FD01E459FF4F808131960190F081E02DE6
:100AB000882329F0309789F0C1110FC008C0309702
:100AC00061F0C90166E070E0E8D2A80FB91F5C963A
:100AD0008C91CF911F910F910994CF911F910F91FC
:100AE00008956F927F928F929F92AF92BF92CF9212
:100AF000DF92EF92FF921F93CF93DF931F92CDB7B8
:100B0000DEB73C01162F862F90E066E070E0C5D27C
:100B1000F301E80FF91F11A2878D90A18130910593
:100B2000F1F01CF4892B51F04CC082309105A1F1F9
:100B3000039709F046C040E050E032C0413009F070
:100B400040C041E050E0612FC30197DFC1D1F30104
:100B5000E85AFF4F608371838283938332C0498355
:100B6000B7D1F301E85AFF4FC080D180E280F38013
:100B70004B015C018C189D08AE08BF0872968081FD
:100B80009181A0E0B0E0498188159905AA05BB05CF
:100B900018F442E050E004C0411113C043E050E0BB
:100BA000612FC3010F90DF91CF911F91FF90EF90C4
:100BB000DF90CF90BF90AF909F908F907F906F907D
:100BC0005CCF0F90DF91CF911F91FF90EF90DF905E
:100BD000CF90BF90AF909F908F907F906F9008952F
:100BE0003F924F925F926F927F928F929F92AF92BD
:100BF000BF92CF92DF92EF92FF920F931F93CF930A
:100C0000DF9300D01F92CDB7DEB79B838A83FC01B0
:100C10007C96885A9F4F2FEF3FEF43815481452B9D
:100C200021F410823283218315823696E817F90762
:100C3000A1F7412CCA80DB8026E6C20ED11CAA8017
:100C4000BB8087E6A80EB11C8A809B8090E6890E47
:100C5000911CF6018081481608F05AC0512CE42CF2
:100C6000F12C87010C5F1F4F000F111FEA81FB81E0
:100C70000E0F1F1FD5016C91561608F047C0D80102
:100C80004D915C91052C02C0569547950A94E2F768
:100C9000417070E0C70101D23C01650C711CD401A8
:100CA000ED91FC91E60DF71D3080B3018A819B81A7
:100CB0004983D3DE498197FD02C0682F1CC001968D
:100CC00019F5442309F120E030E0C90166E070E045
:100CD000E4D1EA81FB81E80FF91F448D41110FC077
:100CE000348E768E658EEA81FB81E80FF91F10A2A3
:100CF000178E41E0622F8A819B81F3DE05C02F5F52
:100D00003F4F2A30310509F75394B4CF4394A1CF14
:100D1000EA81FB81B1962A813B81235A3F4F80E0D3
:100D20009081911181E03696E217F307C9F70F9091
:100D30000F900F90DF91CF911F910F91FF90EF9047
:100D4000DF90CF90BF90AF909F908F907F906F90EB
:100D50005F904F903F900895CF92DF92EF92FF9275
:100D60000F931F93CF93DF93EC01B2D08E01045AFF
:100D70001F4FF801C080D180E280F380AB01BC013D
:100D80004C195D096E097F093C9680819181A0E034
:100D9000B0E084179507A607B70760F4CE0162DDBF
:100DA000CE011EDFC82F94D0F80160837183828347
:100DB000938301C0C0E08C2FDF91CF911F910F91E1
:100DC000FF90EF90DF90CF9008950F931F93CF93F4
:100DD000DF93EC018C0104591F4F81E0F8018083FF
:100DE000CE01BADF882349F089A1882331F08F8DA5
:100DF00098A1019711F48C8D03C0F801108280E056
:100E0000DF91CF911F910F91089581B781BF6CD071
:100E100048DA49D9FECF8EB5887F8EBD8FB5816007
:100E20008FBD8FB58D7F8FBD8EB5877F8EBD8EB503
:100E30008F7E8EBD8EB583608EBD08951F920F92FA
:100E40000FB60F9211242F933F938F939F93AF93DD
:100E5000BF938091600190916101A0916201B09176
:100E6000630130915F0126E0230F2D3730F029E830
:100E7000230F0396A11DB11D03C00296A11DB11D34
:100E800020935F018093600190936101A0936201C0
:100E9000B09363018091640190916501A091660116
:100EA000B09167010196A11DB11D809364019093DB
:100EB0006501A0936601B0936701BF91AF919F91C7
:100EC0008F913F912F910F900FBE0F901F9018950B
:100ED0002FB7F89460916001709161018091620177
:100EE000909163012FBF089580B7826080BF80B763
:100EF000816080BF83B7887F836083BF789489B720
:100F0000816089BF88DF86B18877866886B9379A1D
:100F10000895813031F480B78F7780BF80B78F7BA1
:100F200007C0823039F480B78F7D80BF80B78F7E55
:100F300080BF0895833031F48FB58F778FBD8FB523
:100F40008F7B07C0843031F48FB58F7D8FBD8FB517
:100F50008F7E8FBD0895CF93DF9387FD8F7790E0CD
:100F6000FC01E25DFF4F2491FC01E65CFF4F8491A0
:100F7000882361F190E0880F991FFC01EE5AFF4F22
:100F8000C591D491FC01E45BFF4FA591B49161112F
:100F900009C09FB7F8948881209582238883EC91BB
:100FA0002E230BC0623061F49FB7F8943881822FF2
:100FB000809583238883EC912E2B2C939FBF06C0B2
:100FC0008FB7F894E8812E2B28838FBFDF91CF91C4
:100FD00008950F931F93CF93DF931F92CDB7DEB782
:100FE00087FD8F77282F30E0F901EE5DFF4F849168
:100FF000F901E25DFF4F1491F901E65CFF4F0491A6
:101000000023D9F0882319F0698383DF6981E02FF9
:10101000F0E0EE0FFF1FE45BFF4FA591B4918FB797
:10102000611106C0F8949C91E12FE095E92303C07B
:10103000F894EC91E12BEC938FBF0F90DF91CF915F
:101040001F910F910895CF93DF9387FD8F77282FFE
:1010500030E0F901EE5DFF4F8491F901E25DFF4F51
:10106000D491F901E65CFF4FC491CC2389F0811142
:1010700050DFEC2FF0E0EE0FFF1FEA5BFF4FA59172
:10108000B491EC91ED2381E090E021F480E002C086
:1010900080E090E0DF91CF9108950024552704C0AF
:1010A000080E591F880F991F009729F076956795AC
:1010B000B8F37105B9F7802D952F0895EE0FFF1F36
:1010C0000590F491E02D0994E199FECF9FBB8EBB72
:1010D000E09A99278DB30895262FE199FECF1CBA87
:1010E0009FBB8EBB2DBB0FB6F894E29AE19A0FBE60
:0810F00001960895F894FFCF6A
:1010F80064006C0000000000000001FF4B010000CC
:101108000000004B0802000A050301363435393760
:1011180038232A30333132680100000000D403D16B
:0411280003CF0300EE
:00000001FF
