:100000002CC050C04FC04EC04DC04CC04BC04AC0A9
:1000100049C048C047C063C645C044C043C012C2BF
:1000200059C20000000000040302010000000102A8
:1000300004081020408004020108010101010101AF
:1000400001010202020200003900360000003B00FC
:10005000380000003A003700560111241FBECFE5DA
:10006000D2E0DEBFCDBF10E0A0E6B0E0E6EAFFE000
:1000700002C005900D92A238B107D9F721E0A2E89D
:10008000B0E001C01D92A837B207E1F710E0CDE261
:10009000D0E003C02197FE0168D7CC32D107D1F759
:1000A0004DD77FC7ADCF0F931F93CF9382E890E0DA
:1000B000E3D5282F882329F18091F20090E065E0B4
:1000C00070E042D78D509F4FFC012083C091F20019
:1000D00050D68B019C018C2F90E065E070E034D706
:1000E0008D509F4FFC0101831283238334838091C1
:1000F000F20091E0980F9093F2008F3011F410927B
:10010000F2009091F2008091F100981711F060E0F8
:1001100001C061E087E0AED685B7806285BF889573
:1001200085B78F7D85BFCF911F910F9108950F9354
:100130001F939091F1008091F200981799F18091AE
:10014000F10090E065E070E0FFD68D509F4FFC011C
:10015000808180933E010DD68B019C018091F1003E
:1001600090E065E070E0F0D68D509F4FFC018181FA
:100170009281A381B481B901A801481B590B6A0B74
:100180007B0BDB01CA0190933F01409340018091BA
:10019000F10091E0980F9093F1008F3049F41092A4
:1001A000F10006C010923E0110923F0110924001F2
:1001B00083E0809373001F910F910895CF93B7DF71
:1001C000C0E080917300C81750F4EC2FF0E0E25CBF
:1001D000FE4F608181E491E07FD0CF5FF2CFCF917D
:1001E000089581E090E0C7D68093740080917400F8
:1001F0008F3F41F48BE4809374006091740081E040
:1002000090E0C1C6089581E491E065D089E06CD6A4
:10021000019731F46091740081E491E058D005C0F9
:100220006AE470E081E491E054D062E371E081E43B
:1002300091E0A1D06EED70E081E491E0A1C062E0B8
:1002400089E0DAD561E087E0D7D516B884E885BFC4
:1002500080E885BF85B7877E85BF85B7806285BF0B
:10026000C0DFD1CF81E491E05ED0892BF1F081E451
:1002700091E066D0873CB1F781E491E054D0892BBE
:1002800089F381E491E05CD08093740080917400E4
:10029000883040F380917400883720F760917400B3
:1002A00081E090E070D6AFDFDDCF0895EF920F933D
:1002B00083E0E82E04E020E630E043E650E067E625
:1002C00070E082E890E0CAD10F91EF900895862FF8
:1002D00065C0862F63C080C0CF9380914201882380
:1002E000C1F080914301803218F080E090E019C0A5
:1002F00080914401E0917500F0917600E80FF11DC6
:100300006083809144018F5F809344018093430117
:1003100006C0C62F8FD0882341F38C2F63D081E095
:1003200090E0CF91089580914301882331F090E0CF
:1003300020914401821B9109089575D090E00895A1
:10034000F2DF892BA9F080914301882371F020917D
:100350004401E0917500F0917600E20FF11D80817B
:1003600090E02F5F2093440108954CD090E00895D1
:100370008FEF9FEF089570934601609345010895B4
:100380007093480160934701089510924B011092B9
:100390004C011092490110924A010895CF93DF93C6
:1003A0001F92CDB7DEB78983F0DF898180934E013C
:1003B0001092480110924701109246011092450197
:1003C000DC9ADE9AD49AD69888EA8DB980EF8EB9F5
:1003D0000F90DF91CF910895D498D6981DB880EFF3
:1003E0008EB9089590914A019F5F9F7020914901B5
:1003F0009217E1F3E92FF0E0E859FE4F80839093E4
:100400004A01089580914B0190914C019817E1F3B6
:10041000E0914B01EF5FEF70E0934B01F0E0E85AA1
:10042000FE4F8081089590914B0180914C01891B72
:100430008F70089590914A01809149019F5F891BB7
:100440008F7008951F920F920FB60F9211240F9381
:100450001F932F933F934F935F936F937F938F934C
:100460009F93AF93BF93CF93EF93FF930091450179
:10047000109146010115110561F0C0914C01809168
:100480004B018C1731F0CFDF90E0F8010995C09354
:100490004B0110924D01D698CC9B04C0CE9BFCCF53
:1004A00088EA01C088EF8DB980EF8EB9FF91EF9196
:1004B000CF91BF91AF919F918F917F916F915F91FC
:1004C0004F913F912F911F910F910F900FBE0F9061
:1004D0001F9018951F920F920FB60F9211240F9331
:1004E0001F932F933F934F935F936F937F938F93BC
:1004F0009F93AF93BF93CF93EF93FF9380914D0161
:10050000823009F44CC028F4882359F0813051F12D
:1005100083C0843009F449C010F1853009F464C007
:100520007BC08FB1882331F08FB1869590914E01B9
:10053000891330C0789B0DC0E0914701F0914801CC
:10054000309729F080914A0180934901099581E013
:1005500001C084E080934D011FB8D69A5BC08FB173
:10056000811118C08091490190914A01981791F02A
:10057000809149018F5F8F7080934901E09149011B
:10058000F0E0E859FE4F80818FB982E080934D0101
:10059000D69A03C0D69888EA8DB980E73CC083E03C
:1005A00080934D01D6981FB835C085E080934D01EA
:1005B000D69880E78EB9009145011091460101154A
:1005C000110551F1C0914C0180914B018C1721F123
:1005D0008EB18E7AE9F3759B1FC025DF90E0F8019C
:1005E0000995C0934B0118C084E080934D019FB1E1
:1005F00080914C018F5F8F7020914B01281749F03B
:1006000080934C01E0914C01F0E0E85AFE4F90835A
:10061000A3CFD6988EE78EB9FF91EF91CF91BF917E
:10062000AF919F918F917F916F915F914F913F918A
:100630002F911F910F910F900FBE0F901F90189543
:10064000FC0110821482138215820895862F4CC4F7
:10065000862F642F0FC4862F642FCEC34F925F92D4
:100660006F927F928F929F92AF92BF92CF92DF92C2
:10067000EF920F93CF93DF93EC015B013A014901B5
:100680000296DEDF8BE790E0998388836E018CE130
:10069000C80ED11C2E0188E5480E511CC601D0DFC2
:1006A00086E0C80ED11CC414D504C1F7FE01EE5972
:1006B000FF4F7182608232969182808232960083EF
:1006C0003196E0823797B182A08238968AE090E036
:1006D00091838083329684EF91E091838083339677
:1006E0001182108271971082118212821382C45972
:1006F000DF4F1882DF91CF910F91EF90DF90CF9075
:10070000BF90AF909F908F907F906F905F904F9031
:1007100008952F923F924F925F926F927F928F92A5
:100720009F92AF92BF92CF92DF92EF92FF920F9380
:100730001F93CF93DF93CDB7DEB728970FB6F8940A
:10074000DEBF0FBECDBF98878F8310E04C0186E6D9
:10075000880E911CEF80F88492E6E90EF11CD4011A
:100760008C911817A0F4AF81B8858D919C91F701F9
:10077000A081B181A10FB11DFC012081318142E036
:100780006C918F819885F90109951F5FE8CFF12C55
:10079000EF81F885E959FF4FFA83E983CF80D88448
:1007A000F4E6CF0ED11C412C512C320143948F81A1
:1007B00098858E599F4F9C838B83E981FA81808134
:1007C000F81608F088C0AF2CB12CAF81B8858D9198
:1007D0009C91F601A081B181AA0DBB1DFC01208175
:1007E000318141E06C918F819885F9010995AF8144
:1007F000B8858D919C91F601A081B181AA0DBB1D98
:10080000FC012281338140E06C918F819885F90150
:100810000995D301C2010F2C04C0880F991FAA1F8C
:10082000BB1F0A94D2F79C011C0120943094E12C48
:10083000F4018081AF81B885ED91FC91E81648F50F
:100840000E2D10E0AB81BC818D919C91DC01A00F3D
:10085000B11F0480F581E02D6C918F8198852D83E7
:100860003E830995000F111F2D813E81EF81F88590
:10087000E00FF11F892B29F480859185822B932B22
:1008800004C0808591858221932191878087E3949C
:10089000CFCFD6018D919C91DC01AA0DBB1D0280AA
:1008A000F381E02D41E06C918F8198850995AF81AE
:1008B000B885ED91FC91D6018D919C91DC01AA0D3A
:1008C000BB1D0190F081E02D40E06C918F819885F7
:1008D0000995F39472CF28960FB6F894DEBF0FBE39
:1008E000CDBFDF91CF911F910F91FF90EF90DF90DF
:1008F000CF90BF90AF909F908F907F906F905F90C0
:100900004F903F902F900895FC0180E090E0258D5E
:10091000368D2617370739F0019636968A309105BD
:10092000B1F78FEF9FEF08950F931F93CF93DC01E3
:10093000C62F8A01262F30E0C90166E070E004D39B
:10094000FD01E80FF91F10A3078F81E081A3FD01CE
:10095000E459FF4F808131960190F081E02D88238A
:1009600029F0309789F0C1110FC008C0309761F0AD
:10097000C90166E070E0E8D2A80FB91F5C968C91BF
:10098000CF911F910F910994CF911F910F910895CD
:100990006F927F928F929F92AF92BF92CF92DF928F
:1009A000EF92FF921F93CF93DF931F92CDB7DEB7E5
:1009B0003C01162F862F90E066E070E0C5D2F3016F
:1009C000E80FF91F11A2878D90A181309105F1F0F8
:1009D0001CF4892B51F04CC082309105A1F1039792
:1009E00009F046C040E050E032C0413009F040C05C
:1009F00041E050E0612FC30197DFBBD1F301E85A1A
:100A0000FF4F608371838283938332C04983B1D166
:100A1000F301E85AFF4FC080D180E280F3804B01A0
:100A20005C018C189D08AE08BF0872968081918188
:100A3000A0E0B0E0498188159905AA05BB0518F426
:100A400042E050E004C0411113C043E050E0612F88
:100A5000C3010F90DF91CF911F91FF90EF90DF9036
:100A6000CF90BF90AF909F908F907F906F905CCF12
:100A70000F90DF91CF911F91FF90EF90DF90CF907B
:100A8000BF90AF909F908F907F906F9008953F920E
:100A90004F925F926F927F928F929F92AF92BF928E
:100AA000CF92DF92EF92FF920F931F93CF93DF933A
:100AB00000D01F92CDB7DEB79B838A83FC017C9662
:100AC000885A9F4F2FEF3FEF43815481452B21F4EC
:100AD00010823283218315823696E817F907A1F731
:100AE000412CCA80DB8026E6C20ED11CAA80BB80C6
:100AF00087E6A80EB11C8A809B8090E6890E911C27
:100B0000F6018081481608F05AC0512CE42CF12CD3
:100B100087010C5F1F4F000F111FEA81FB810E0F31
:100B20001F1FD5016C91561608F047C0D8014D9192
:100B30005C91052C02C0569547950A94E2F74170E6
:100B400070E0C70101D23C01650C711CD401ED912C
:100B5000FC91E60DF71D3080B3018A819B814983AA
:100B6000D3DE498197FD02C0682F1CC0019619F59C
:100B7000442309F120E030E0C90166E070E0E4D1EF
:100B8000EA81FB81E80FF91F448D41110FC0348EBB
:100B9000768E658EEA81FB81E80FF91F10A2178E11
:100BA00041E0622F8A819B81F3DE05C02F5F3F4FBA
:100BB0002A30310509F75394B4CF4394A1CFEA8189
:100BC000FB81B1962A813B81235A3F4F80E090817F
:100BD000911181E03696E217F307C9F70F900F9055
:100BE0000F90DF91CF911F910F91FF90EF90DF90C9
:100BF000CF90BF90AF909F908F907F906F905F90BD
:100C00004F903F900895CF92DF92EF92FF920F9313
:100C10001F93CF93DF93EC01ACD08E01045A1F4F8A
:100C2000F801C080D180E280F380AB01BC014C1997
:100C30005D096E097F093C9680819181A0E0B0E05A
:100C400084179507A607B70760F4CE0162DDCE01D1
:100C50001EDFC82F8ED0F801608371838283938357
:100C600001C0C0E08C2FDF91CF911F910F91FF90B9
:100C7000EF90DF90CF9008950F931F93CF93DF9362
:100C8000EC018C0104591F4F81E0F8018083CE01F3
:100C9000BADF882349F089A1882331F08F8D98A18C
:100CA000019711F48C8D03C0F801108280E0DF9170
:100CB000CF911F910F9108958EB5887F8EBD8FB50E
:100CC00081608FBD8FB58D7F8FBD8EB5877F8EBDC7
:100CD0008EB58F7E8EBD8EB583608EBD08951F92BA
:100CE0000F920FB60F9211242F933F938F939F93E0
:100CF000AF93BF938091500190915101A091520107
:100D0000B091530130914F0126E0230F2D3730F081
:100D100029E8230F0396A11DB11D03C00296A11D52
:100D2000B11D20934F018093500190935101A093E6
:100D30005201B09353018091540190915501A091BB
:100D40005601B09157010196A11DB11D8093540128
:100D500090935501A0935601B0935701BF91AF9165
:100D60009F918F913F912F910F900FBE0F901F90E9
:100D700018952FB7F89460915001709151018091AE
:100D80005201909153012FBF089580B7826080BFB8
:100D900080B7816080BF83B7887F836083BF78948A
:100DA00089B7816089BF88DF86B18877866886B910
:100DB000379A0895813031F480B78F7780BF80B73C
:100DC0008F7B07C0823039F480B78F7D80BF80B7BA
:100DD0008F7E80BF0895833031F48FB58F778FBDBC
:100DE0008FB58F7B07C0843031F48FB58F7D8FBD79
:100DF0008FB58F7E8FBD0895CF93DF9387FD8F775B
:100E000090E0FC01E25DFF4F2491FC01E65CFF4FA6
:100E10008491882361F190E0880F991FFC01EE5ABC
:100E2000FF4FC591D491FC01E45BFF4FA591B491B4
:100E3000611109C09FB7F894888120958223888327
:100E4000EC912E230BC0623061F49FB7F894388187
:100E5000822F809583238883EC912E2B2C939FBF28
:100E600006C08FB7F894E8812E2B28838FBFDF91BF
:100E7000CF9108950F931F93CF93DF931F92CDB718
:100E8000DEB787FD8F77282F30E0F901EE5DFF4F49
:100E90008491F901E25DFF4F1491F901E65CFF4F87
:100EA00004910023D9F0882319F0698383DF6981D5
:100EB000E02FF0E0EE0FFF1FE45BFF4FA591B49130
:100EC0008FB7611106C0F8949C91E12FE095E9235A
:100ED00003C0F894EC91E12BEC938FBF0F90DF915E
:100EE000CF911F910F910895CF93DF9387FD8F7757
:100EF000282F30E0F901EE5DFF4F8491F901E25DAA
:100F0000FF4FD491F901E65CFF4FC491CC2389F0E7
:100F1000811150DFEC2FF0E0EE0FFF1FEA5BFF4F77
:100F2000A591B491EC91ED2381E090E021F480E073
:100F300002C080E090E0DF91CF91089581B781BF3A
:100F400024DF7DD9B0D8FECF0024552704C0080E79
:100F5000591F880F991F009729F076956795B8F368
:100F60007105B9F7802D952F0895EE0FFF1F05909D
:100F7000F491E02D0994E199FECF9FBB8EBBE09ADE
:100F800099278DB30895262FE199FECF1CBA9FBBF8
:100F90008EBB2DBB0FB6F894E29AE19A0FBE019674
:060FA0000895F894FFCF54
:100FA6000802000A050301363435393738232A305A
:100FB600333132014B5801000000002B0328032671
:020FC600030026
:00000001FF
